{
  "contractName": "BatchTracking",
  "abi": [
    {
      "anonymous": false,
      "inputs": [
        {
          "indexed": true,
          "internalType": "string",
          "name": "batchId",
          "type": "string"
        },
        {
          "indexed": false,
          "internalType": "string",
          "name": "productName",
          "type": "string"
        },
        {
          "indexed": true,
          "internalType": "address",
          "name": "creator",
          "type": "address"
        },
        {
          "indexed": false,
          "internalType": "uint256",
          "name": "timestamp",
          "type": "uint256"
        }
      ],
      "name": "BatchCreated",
      "type": "event"
    },
    {
      "anonymous": false,
      "inputs": [
        {
          "indexed": true,
          "internalType": "string",
          "name": "authId",
          "type": "string"
        },
        {
          "indexed": true,
          "internalType": "string",
          "name": "batchId",
          "type": "string"
        },
        {
          "indexed": false,
          "internalType": "string",
          "name": "nfcTagId",
          "type": "string"
        },
        {
          "indexed": false,
          "internalType": "bool",
          "name": "isValid",
          "type": "bool"
        },
        {
          "indexed": false,
          "internalType": "uint256",
          "name": "timestamp",
          "type": "uint256"
        }
      ],
      "name": "NFCAuthenticated",
      "type": "event"
    },
    {
      "anonymous": false,
      "inputs": [
        {
          "indexed": true,
          "internalType": "string",
          "name": "metricId",
          "type": "string"
        },
        {
          "indexed": true,
          "internalType": "string",
          "name": "batchId",
          "type": "string"
        },
        {
          "indexed": false,
          "internalType": "string",
          "name": "metricType",
          "type": "string"
        },
        {
          "indexed": true,
          "internalType": "address",
          "name": "inspector",
          "type": "address"
        }
      ],
      "name": "QualityMetricAdded",
      "type": "event"
    },
    {
      "inputs": [
        {
          "internalType": "uint256",
          "name": "",
          "type": "uint256"
        }
      ],
      "name": "authenticationIds",
      "outputs": [
        {
          "internalType": "string",
          "name": "",
          "type": "string"
        }
      ],
      "stateMutability": "view",
      "type": "function"
    },
    {
      "inputs": [
        {
          "internalType": "string",
          "name": "",
          "type": "string"
        },
        {
          "internalType": "uint256",
          "name": "",
          "type": "uint256"
        }
      ],
      "name": "batchAuthentications",
      "outputs": [
        {
          "internalType": "string",
          "name": "",
          "type": "string"
        }
      ],
      "stateMutability": "view",
      "type": "function"
    },
    {
      "inputs": [
        {
          "internalType": "uint256",
          "name": "",
          "type": "uint256"
        }
      ],
      "name": "batchIds",
      "outputs": [
        {
          "internalType": "string",
          "name": "",
          "type": "string"
        }
      ],
      "stateMutability": "view",
      "type": "function"
    },
    {
      "inputs": [
        {
          "internalType": "string",
          "name": "",
          "type": "string"
        },
        {
          "internalType": "uint256",
          "name": "",
          "type": "uint256"
        }
      ],
      "name": "batchQualityMetrics",
      "outputs": [
        {
          "internalType": "string",
          "name": "",
          "type": "string"
        }
      ],
      "stateMutability": "view",
      "type": "function"
    },
    {
      "inputs": [
        {
          "internalType": "string",
          "name": "",
          "type": "string"
        }
      ],
      "name": "batches",
      "outputs": [
        {
          "internalType": "string",
          "name": "batchId",
          "type": "string"
        },
        {
          "internalType": "string",
          "name": "productName",
          "type": "string"
        },
        {
          "internalType": "string",
          "name": "variety",
          "type": "string"
        },
        {
          "internalType": "uint256",
          "name": "quantity",
          "type": "uint256"
        },
        {
          "internalType": "string",
          "name": "unit",
          "type": "string"
        },
        {
          "internalType": "string",
          "name": "location",
          "type": "string"
        },
        {
          "internalType": "uint256",
          "name": "harvestDate",
          "type": "uint256"
        },
        {
          "internalType": "uint256",
          "name": "expiryDate",
          "type": "uint256"
        },
        {
          "internalType": "string",
          "name": "nfcTagId",
          "type": "string"
        },
        {
          "internalType": "address",
          "name": "creator",
          "type": "address"
        },
        {
          "internalType": "uint256",
          "name": "timestamp",
          "type": "uint256"
        },
        {
          "internalType": "bool",
          "name": "exists",
          "type": "bool"
        }
      ],
      "stateMutability": "view",
      "type": "function"
    },
    {
      "inputs": [
        {
          "internalType": "string",
          "name": "",
          "type": "string"
        }
      ],
      "name": "nfcAuthenticationCount",
      "outputs": [
        {
          "internalType": "uint256",
          "name": "",
          "type": "uint256"
        }
      ],
      "stateMutability": "view",
      "type": "function"
    },
    {
      "inputs": [
        {
          "internalType": "string",
          "name": "",
          "type": "string"
        }
      ],
      "name": "nfcAuthentications",
      "outputs": [
        {
          "internalType": "string",
          "name": "authId",
          "type": "string"
        },
        {
          "internalType": "string",
          "name": "batchId",
          "type": "string"
        },
        {
          "internalType": "string",
          "name": "nfcTagId",
          "type": "string"
        },
        {
          "internalType": "uint256",
          "name": "timestamp",
          "type": "uint256"
        },
        {
          "internalType": "string",
          "name": "location",
          "type": "string"
        },
        {
          "internalType": "bool",
          "name": "isValid",
          "type": "bool"
        }
      ],
      "stateMutability": "view",
      "type": "function"
    },
    {
      "inputs": [
        {
          "internalType": "uint256",
          "name": "",
          "type": "uint256"
        }
      ],
      "name": "qualityMetricIds",
      "outputs": [
        {
          "internalType": "string",
          "name": "",
          "type": "string"
        }
      ],
      "stateMutability": "view",
      "type": "function"
    },
    {
      "inputs": [
        {
          "internalType": "string",
          "name": "",
          "type": "string"
        }
      ],
      "name": "qualityMetrics",
      "outputs": [
        {
          "internalType": "string",
          "name": "metricId",
          "type": "string"
        },
        {
          "internalType": "string",
          "name": "batchId",
          "type": "string"
        },
        {
          "internalType": "string",
          "name": "metricType",
          "type": "string"
        },
        {
          "internalType": "string",
          "name": "value",
          "type": "string"
        },
        {
          "internalType": "string",
          "name": "unit",
          "type": "string"
        },
        {
          "internalType": "uint256",
          "name": "timestamp",
          "type": "uint256"
        },
        {
          "internalType": "address",
          "name": "inspector",
          "type": "address"
        },
        {
          "internalType": "bool",
          "name": "exists",
          "type": "bool"
        }
      ],
      "stateMutability": "view",
      "type": "function"
    },
    {
      "inputs": [
        {
          "internalType": "string",
          "name": "_batchId",
          "type": "string"
        },
        {
          "internalType": "string",
          "name": "_productName",
          "type": "string"
        },
        {
          "internalType": "string",
          "name": "_variety",
          "type": "string"
        },
        {
          "internalType": "uint256",
          "name": "_quantity",
          "type": "uint256"
        },
        {
          "internalType": "string",
          "name": "_unit",
          "type": "string"
        },
        {
          "internalType": "string",
          "name": "_location",
          "type": "string"
        },
        {
          "internalType": "uint256",
          "name": "_harvestDate",
          "type": "uint256"
        },
        {
          "internalType": "uint256",
          "name": "_expiryDate",
          "type": "uint256"
        },
        {
          "internalType": "string",
          "name": "_nfcTagId",
          "type": "string"
        }
      ],
      "name": "createBatch",
      "outputs": [],
      "stateMutability": "nonpayable",
      "type": "function"
    },
    {
      "inputs": [
        {
          "internalType": "string",
          "name": "_metricId",
          "type": "string"
        },
        {
          "internalType": "string",
          "name": "_batchId",
          "type": "string"
        },
        {
          "internalType": "string",
          "name": "_metricType",
          "type": "string"
        },
        {
          "internalType": "string",
          "name": "_value",
          "type": "string"
        },
        {
          "internalType": "string",
          "name": "_unit",
          "type": "string"
        }
      ],
      "name": "addQualityMetric",
      "outputs": [],
      "stateMutability": "nonpayable",
      "type": "function"
    },
    {
      "inputs": [
        {
          "internalType": "string",
          "name": "_authId",
          "type": "string"
        },
        {
          "internalType": "string",
          "name": "_batchId",
          "type": "string"
        },
        {
          "internalType": "string",
          "name": "_nfcTagId",
          "type": "string"
        },
        {
          "internalType": "string",
          "name": "_location",
          "type": "string"
        }
      ],
      "name": "authenticateNFC",
      "outputs": [
        {
          "internalType": "bool",
          "name": "",
          "type": "bool"
        }
      ],
      "stateMutability": "nonpayable",
      "type": "function"
    },
    {
      "inputs": [
        {
          "internalType": "string",
          "name": "_batchId",
          "type": "string"
        }
      ],
      "name": "getBatch",
      "outputs": [
        {
          "internalType": "string",
          "name": "productName",
          "type": "string"
        },
        {
          "internalType": "string",
          "name": "variety",
          "type": "string"
        },
        {
          "internalType": "uint256",
          "name": "quantity",
          "type": "uint256"
        },
        {
          "internalType": "string",
          "name": "unit",
          "type": "string"
        },
        {
          "internalType": "string",
          "name": "location",
          "type": "string"
        },
        {
          "internalType": "uint256",
          "name": "harvestDate",
          "type": "uint256"
        },
        {
          "internalType": "uint256",
          "name": "expiryDate",
          "type": "uint256"
        },
        {
          "internalType": "string",
          "name": "nfcTagId",
          "type": "string"
        },
        {
          "internalType": "address",
          "name": "creator",
          "type": "address"
        },
        {
          "internalType": "uint256",
          "name": "timestamp",
          "type": "uint256"
        }
      ],
      "stateMutability": "view",
      "type": "function"
    },
    {
      "inputs": [
        {
          "internalType": "string",
          "name": "_batchId",
          "type": "string"
        }
      ],
      "name": "getBatchQualityMetrics",
      "outputs": [
        {
          "internalType": "string[]",
          "name": "",
          "type": "string[]"
        }
      ],
      "stateMutability": "view",
      "type": "function"
    },
    {
      "inputs": [
        {
          "internalType": "string",
          "name": "_batchId",
          "type": "string"
        }
      ],
      "name": "getBatchAuthentications",
      "outputs": [
        {
          "internalType": "string[]",
          "name": "",
          "type": "string[]"
        }
      ],
      "stateMutability": "view",
      "type": "function"
    },
    {
      "inputs": [],
      "name": "getTotalBatches",
      "outputs": [
        {
          "internalType": "uint256",
          "name": "",
          "type": "uint256"
        }
      ],
      "stateMutability": "view",
      "type": "function"
    },
    {
      "inputs": [],
      "name": "getAllBatchIds",
      "outputs": [
        {
          "internalType": "string[]",
          "name": "",
          "type": "string[]"
        }
      ],
      "stateMutability": "view",
      "type": "function"
    },
    {
      "inputs": [
        {
          "internalType": "string",
          "name": "_nfcTagId",
          "type": "string"
        }
      ],
      "name": "getNFCAuthCount",
      "outputs": [
        {
          "internalType": "uint256",
          "name": "",
          "type": "uint256"
        }
      ],
      "stateMutability": "view",
      "type": "function"
    },
    {
      "inputs": [
        {
          "internalType": "string",
          "name": "_authId",
          "type": "string"
        }
      ],
      "name": "getAuthenticationDetails",
      "outputs": [
        {
          "internalType": "string",
          "name": "batchId",
          "type": "string"
        },
        {
          "internalType": "string",
          "name": "nfcTagId",
          "type": "string"
        },
        {
          "internalType": "uint256",
          "name": "timestamp",
          "type": "uint256"
        },
        {
          "internalType": "string",
          "name": "location",
          "type": "string"
        },
        {
          "internalType": "bool",
          "name": "isValid",
          "type": "bool"
        }
      ],
      "stateMutability": "view",
      "type": "function"
    }
  ],
  "bytecode": "0x608060405234801561001057600080fd5b50612b68806100206000396000f3fe608060405234801561001057600080fd5b50600436106101215760003560e01c8063bce06947116100ad578063da63237611610071578063da6323761461029f578063df5ed7b6146102c6578063e561dddc146102d9578063f68f6bb9146102e1578063f9ca4274146102f457610121565b8063bce0694714610226578063bdb6f1731461022e578063c108489d14610241578063cec317aa14610266578063d7f9c7091461028a57610121565b80634e75420d116100f45780634e75420d146101a25780636cea4219146101b55780637ef1446a146101c85780639f872c82146101f3578063b3d346b91461021357610121565b8063019b17be14610126578063315cb6db1461014f5780633fc8756f1461016f57806342790e7314610182575b600080fd5b610139610134366004612155565b61031d565b6040516101469190612a75565b60405180910390f35b61016261015d366004612155565b61033a565b6040516101469190612562565b61016261017d366004612155565b610431565b610195610190366004612411565b61051d565b60405161014691906125cd565b6101396101b0366004612155565b6105e5565b6101956101c3366004612454565b61060d565b6101db6101d6366004612155565b610638565b6040516101469c9b9a99989796959493929190612705565b610206610201366004612190565b6109da565b60405161014691906125c2565b610195610221366004612454565b610cc9565b610162610cd9565b61019561023c366004612411565b610db2565b61025461024f366004612155565b610ddd565b6040516101469695949392919061269c565b610279610274366004612155565b61103f565b6040516101469594939291906127c6565b61029d610298366004612238565b6112ff565b005b6102b26102ad366004612155565b6115e2565b60405161014698979695949392919061260c565b61029d6102d4366004612304565b6118e4565b610139611bb7565b6101956102ef366004612454565b611bbd565b610307610302366004612155565b611bcd565b6040516101469a9998979695949392919061281a565b805160208183018101805160058252928201919093012091525481565b606060038260405161034c91906124ab565b9081526020016040518091039020805480602002602001604051908101604052809291908181526020016000905b8282101561042657838290600052602060002001805461039990612aba565b80601f01602080910402602001604051908101604052809291908181526020018280546103c590612aba565b80156104125780601f106103e757610100808354040283529160200191610412565b820191906000526020600020905b8154815290600101906020018083116103f557829003601f168201915b50505050508152602001906001019061037a565b505050509050919050565b606060048260405161044391906124ab565b9081526020016040518091039020805480602002602001604051908101604052809291908181526020016000905b8282101561042657838290600052602060002001805461049090612aba565b80601f01602080910402602001604051908101604052809291908181526020018280546104bc90612aba565b80156105095780601f106104de57610100808354040283529160200191610509565b820191906000526020600020905b8154815290600101906020018083116104ec57829003601f168201915b505050505081526020019060010190610471565b8151602081840181018051600382529282019185019190912091905280548290811061054857600080fd5b9060005260206000200160009150915050805461056490612aba565b80601f016020809104026020016040519081016040528092919081815260200182805461059090612aba565b80156105dd5780601f106105b2576101008083540402835291602001916105dd565b820191906000526020600020905b8154815290600101906020018083116105c057829003601f168201915b505050505081565b60006005826040516105f791906124ab565b9081526020016040518091039020549050919050565b6007818154811061061d57600080fd5b90600052602060002001600091509050805461056490612aba565b805160208183018101805160008252928201919093012091528054819061065e90612aba565b80601f016020809104026020016040519081016040528092919081815260200182805461068a90612aba565b80156106d75780601f106106ac576101008083540402835291602001916106d7565b820191906000526020600020905b8154815290600101906020018083116106ba57829003601f168201915b5050505050908060010180546106ec90612aba565b80601f016020809104026020016040519081016040528092919081815260200182805461071890612aba565b80156107655780601f1061073a57610100808354040283529160200191610765565b820191906000526020600020905b81548152906001019060200180831161074857829003601f168201915b50505050509080600201805461077a90612aba565b80601f01602080910402602001604051908101604052809291908181526020018280546107a690612aba565b80156107f35780601f106107c8576101008083540402835291602001916107f3565b820191906000526020600020905b8154815290600101906020018083116107d657829003601f168201915b50505050509080600301549080600401805461080e90612aba565b80601f016020809104026020016040519081016040528092919081815260200182805461083a90612aba565b80156108875780601f1061085c57610100808354040283529160200191610887565b820191906000526020600020905b81548152906001019060200180831161086a57829003601f168201915b50505050509080600501805461089c90612aba565b80601f01602080910402602001604051908101604052809291908181526020018280546108c890612aba565b80156109155780601f106108ea57610100808354040283529160200191610915565b820191906000526020600020905b8154815290600101906020018083116108f857829003601f168201915b50505050509080600601549080600701549080600801805461093690612aba565b80601f016020809104026020016040519081016040528092919081815260200182805461096290612aba565b80156109af5780601f10610984576101008083540402835291602001916109af565b820191906000526020600020905b81548152906001019060200180831161099257829003601f168201915b505050506009830154600a840154600b9094015492936001600160a01b039091169290915060ff168c565b6000836000816040516109ed91906124ab565b908152604051908190036020019020600b015460ff16610a285760405162461bcd60e51b8152600401610a1f9061293c565b60405180910390fd5b6000865111610a495760405162461bcd60e51b8152600401610a1f906129d8565b600084604051602001610a5c91906124ab565b60405160208183030381529060405280519060200120600087604051610a8291906124ab565b9081526020016040518091039020600801604051602001610aa391906124c7565b604051602081830303815290604052805190602001201490506040518060c00160405280888152602001878152602001868152602001428152602001858152602001821515815250600288604051610afb91906124ab565b90815260200160405180910390206000820151816000019080519060200190610b2592919061203b565b506020828101518051610b3e926001850192019061203b565b5060408201518051610b5a91600284019160209091019061203b565b506060820151600382015560808201518051610b8091600484019160209091019061203b565b5060a091909101516005909101805460ff1916911515919091179055600880546001810182556000919091528751610bdf917ff3f7a9fe364faab93b216da50a3214154f22a0a2b415b23a84c8169e8b636ee3019060208a019061203b565b50600486604051610bf091906124ab565b9081526040516020918190038201902080546001810182556000918252908290208951610c25939190920191908a019061203b565b50600585604051610c3691906124ab565b9081526040519081900360200190208054906000610c5383612af5565b919050555085604051610c6691906124ab565b604051809103902087604051610c7c91906124ab565b60405180910390207fe8479dc5a1e854b821f561a1fbc4981609fc3f360f4ee8b97717afef7750adbd878442604051610cb7939291906125e7565b60405180910390a39695505050505050565b6006818154811061061d57600080fd5b60606006805480602002602001604051908101604052809291908181526020016000905b82821015610da9578382906000526020600020018054610d1c90612aba565b80601f0160208091040260200160405190810160405280929190818152602001828054610d4890612aba565b8015610d955780601f10610d6a57610100808354040283529160200191610d95565b820191906000526020600020905b815481529060010190602001808311610d7857829003601f168201915b505050505081526020019060010190610cfd565b50505050905090565b8151602081840181018051600482529282019185019190912091905280548290811061054857600080fd5b8051602081830181018051600282529282019190930120915280548190610e0390612aba565b80601f0160208091040260200160405190810160405280929190818152602001828054610e2f90612aba565b8015610e7c5780601f10610e5157610100808354040283529160200191610e7c565b820191906000526020600020905b815481529060010190602001808311610e5f57829003601f168201915b505050505090806001018054610e9190612aba565b80601f0160208091040260200160405190810160405280929190818152602001828054610ebd90612aba565b8015610f0a5780601f10610edf57610100808354040283529160200191610f0a565b820191906000526020600020905b815481529060010190602001808311610eed57829003601f168201915b505050505090806002018054610f1f90612aba565b80601f0160208091040260200160405190810160405280929190818152602001828054610f4b90612aba565b8015610f985780601f10610f6d57610100808354040283529160200191610f98565b820191906000526020600020905b815481529060010190602001808311610f7b57829003601f168201915b505050505090806003015490806004018054610fb390612aba565b80601f0160208091040260200160405190810160405280929190818152602001828054610fdf90612aba565b801561102c5780601f106110015761010080835404028352916020019161102c565b820191906000526020600020905b81548152906001019060200180831161100f57829003601f168201915b5050506005909301549192505060ff1686565b6060806000606060008060028760405161105991906124ab565b90815260200160405180910390206040518060c001604052908160008201805461108290612aba565b80601f01602080910402602001604051908101604052809291908181526020018280546110ae90612aba565b80156110fb5780601f106110d0576101008083540402835291602001916110fb565b820191906000526020600020905b8154815290600101906020018083116110de57829003601f168201915b5050505050815260200160018201805461111490612aba565b80601f016020809104026020016040519081016040528092919081815260200182805461114090612aba565b801561118d5780601f106111625761010080835404028352916020019161118d565b820191906000526020600020905b81548152906001019060200180831161117057829003601f168201915b505050505081526020016002820180546111a690612aba565b80601f01602080910402602001604051908101604052809291908181526020018280546111d290612aba565b801561121f5780601f106111f45761010080835404028352916020019161121f565b820191906000526020600020905b81548152906001019060200180831161120257829003601f168201915b505050505081526020016003820154815260200160048201805461124290612aba565b80601f016020809104026020016040519081016040528092919081815260200182805461126e90612aba565b80156112bb5780601f10611290576101008083540402835291602001916112bb565b820191906000526020600020905b81548152906001019060200180831161129e57829003601f168201915b50505091835250506005919091015460ff16151560209182015281015160408201516060830151608084015160a090940151929b919a509850919650945092505050565b8360008160405161131091906124ab565b908152604051908190036020019020600b015460ff166113425760405162461bcd60e51b8152600401610a1f9061293c565b60018660405161135291906124ab565b9081526040519081900360200190206006015460ff600160a01b909104161561138d5760405162461bcd60e51b8152600401610a1f90612a46565b60008651116113ae5760405162461bcd60e51b8152600401610a1f9061296a565b604051806101000160405280878152602001868152602001858152602001848152602001838152602001428152602001336001600160a01b031681526020016001151581525060018760405161140491906124ab565b9081526020016040518091039020600082015181600001908051906020019061142e92919061203b565b506020828101518051611447926001850192019061203b565b506040820151805161146391600284019160209091019061203b565b506060820151805161147f91600384019160209091019061203b565b506080820151805161149b91600484019160209091019061203b565b5060a0820151600582015560c08201516006909101805460e0909301511515600160a01b0260ff60a01b196001600160a01b039093166001600160a01b0319909416939093179190911691909117905560078054600181018255600091909152865161152e917fa66cc928b5edb82af9bd49922954155ab7b0942694bea4ce44661d9a8736c6880190602089019061203b565b5060038560405161153f91906124ab565b90815260405160209181900382019020805460018101825560009182529082902088516115749391909201919089019061203b565b5060405133906115859087906124ab565b60405180910390208760405161159b91906124ab565b60405180910390207f0da5904bc3e36d3ca8cdf288055602cd8e48f31066d460554405abaa5b9bb91e876040516115d291906125cd565b60405180910390a4505050505050565b805160208183018101805160018252928201919093012091528054819061160890612aba565b80601f016020809104026020016040519081016040528092919081815260200182805461163490612aba565b80156116815780601f1061165657610100808354040283529160200191611681565b820191906000526020600020905b81548152906001019060200180831161166457829003601f168201915b50505050509080600101805461169690612aba565b80601f01602080910402602001604051908101604052809291908181526020018280546116c290612aba565b801561170f5780601f106116e45761010080835404028352916020019161170f565b820191906000526020600020905b8154815290600101906020018083116116f257829003601f168201915b50505050509080600201805461172490612aba565b80601f016020809104026020016040519081016040528092919081815260200182805461175090612aba565b801561179d5780601f106117725761010080835404028352916020019161179d565b820191906000526020600020905b81548152906001019060200180831161178057829003601f168201915b5050505050908060030180546117b290612aba565b80601f01602080910402602001604051908101604052809291908181526020018280546117de90612aba565b801561182b5780601f106118005761010080835404028352916020019161182b565b820191906000526020600020905b81548152906001019060200180831161180e57829003601f168201915b50505050509080600401805461184090612aba565b80601f016020809104026020016040519081016040528092919081815260200182805461186c90612aba565b80156118b95780601f1061188e576101008083540402835291602001916118b9565b820191906000526020600020905b81548152906001019060200180831161189c57829003601f168201915b5050505060058301546006909301549192916001600160a01b0381169150600160a01b900460ff1688565b6000896040516118f491906124ab565b908152604051908190036020019020600b015460ff16156119275760405162461bcd60e51b8152600401610a1f9061290e565b60008951116119485760405162461bcd60e51b8152600401610a1f906129a1565b60008851116119695760405162461bcd60e51b8152600401610a1f90612a0f565b600086116119895760405162461bcd60e51b8152600401610a1f906128d7565b6040518061018001604052808a8152602001898152602001888152602001878152602001868152602001858152602001848152602001838152602001828152602001336001600160a01b031681526020014281526020016001151581525060008a6040516119f791906124ab565b90815260200160405180910390206000820151816000019080519060200190611a2192919061203b565b506020828101518051611a3a926001850192019061203b565b5060408201518051611a5691600284019160209091019061203b565b506060820151600382015560808201518051611a7c91600484019160209091019061203b565b5060a08201518051611a9891600584019160209091019061203b565b5060c0820151600682015560e082015160078201556101008201518051611ac991600884019160209091019061203b565b506101208201516009820180546001600160a01b0319166001600160a01b03909216919091179055610140820151600a82015561016090910151600b909101805460ff1916911515919091179055600680546001810182556000919091528951611b5a917ff652222313e28459528d920b65115c16c04f3efc82aaedc97be59f3f377c0d3f019060208c019061203b565b506040513390611b6b908b906124ab565b60405180910390207fd8045a119a7c2df6cea5c487e90f857abb1b84a5a356331229d0020ce9debc628a42604051611ba49291906128b5565b60405180910390a3505050505050505050565b60065490565b6008818154811061061d57600080fd5b606080600060608060008060606000806000808c604051611bee91906124ab565b908152602001604051809103902060405180610180016040529081600082018054611c1890612aba565b80601f0160208091040260200160405190810160405280929190818152602001828054611c4490612aba565b8015611c915780601f10611c6657610100808354040283529160200191611c91565b820191906000526020600020905b815481529060010190602001808311611c7457829003601f168201915b50505050508152602001600182018054611caa90612aba565b80601f0160208091040260200160405190810160405280929190818152602001828054611cd690612aba565b8015611d235780601f10611cf857610100808354040283529160200191611d23565b820191906000526020600020905b815481529060010190602001808311611d0657829003601f168201915b50505050508152602001600282018054611d3c90612aba565b80601f0160208091040260200160405190810160405280929190818152602001828054611d6890612aba565b8015611db55780601f10611d8a57610100808354040283529160200191611db5565b820191906000526020600020905b815481529060010190602001808311611d9857829003601f168201915b5050505050815260200160038201548152602001600482018054611dd890612aba565b80601f0160208091040260200160405190810160405280929190818152602001828054611e0490612aba565b8015611e515780601f10611e2657610100808354040283529160200191611e51565b820191906000526020600020905b815481529060010190602001808311611e3457829003601f168201915b50505050508152602001600582018054611e6a90612aba565b80601f0160208091040260200160405190810160405280929190818152602001828054611e9690612aba565b8015611ee35780601f10611eb857610100808354040283529160200191611ee3565b820191906000526020600020905b815481529060010190602001808311611ec657829003601f168201915b505050505081526020016006820154815260200160078201548152602001600882018054611f1090612aba565b80601f0160208091040260200160405190810160405280929190818152602001828054611f3c90612aba565b8015611f895780601f10611f5e57610100808354040283529160200191611f89565b820191906000526020600020905b815481529060010190602001808311611f6c57829003601f168201915b505050918352505060098201546001600160a01b03166020820152600a8201546040820152600b9091015460ff161515606090910152610160810151909150611fe45760405162461bcd60e51b8152600401610a1f9061293c565b80602001518160400151826060015183608001518460a001518560c001518660e001518761010001518861012001518961014001519a509a509a509a509a509a509a509a509a509a50509193959799509193959799565b82805461204790612aba565b90600052602060002090601f01602090048101928261206957600085556120af565b82601f1061208257805160ff19168380011785556120af565b828001600101855582156120af579182015b828111156120af578251825591602001919060010190612094565b506120bb9291506120bf565b5090565b5b808211156120bb57600081556001016120c0565b600082601f8301126120e4578081fd5b813567ffffffffffffffff808211156120ff576120ff612b1c565b604051601f8301601f19168101602001828111828210171561212357612123612b1c565b60405282815284830160200186101561213a578384fd5b82602086016020830137918201602001929092529392505050565b600060208284031215612166578081fd5b813567ffffffffffffffff81111561217c578182fd5b612188848285016120d4565b949350505050565b600080600080608085870312156121a5578283fd5b843567ffffffffffffffff808211156121bc578485fd5b6121c8888389016120d4565b955060208701359150808211156121dd578485fd5b6121e9888389016120d4565b945060408701359150808211156121fe578384fd5b61220a888389016120d4565b9350606087013591508082111561221f578283fd5b5061222c878288016120d4565b91505092959194509250565b600080600080600060a0868803121561224f578081fd5b853567ffffffffffffffff80821115612266578283fd5b61227289838a016120d4565b96506020880135915080821115612287578283fd5b61229389838a016120d4565b955060408801359150808211156122a8578283fd5b6122b489838a016120d4565b945060608801359150808211156122c9578283fd5b6122d589838a016120d4565b935060808801359150808211156122ea578283fd5b506122f7888289016120d4565b9150509295509295909350565b60008060008060008060008060006101208a8c031215612322578384fd5b893567ffffffffffffffff80821115612339578586fd5b6123458d838e016120d4565b9a5060208c013591508082111561235a578586fd5b6123668d838e016120d4565b995060408c013591508082111561237b578586fd5b6123878d838e016120d4565b985060608c0135975060808c01359150808211156123a3578586fd5b6123af8d838e016120d4565b965060a08c01359150808211156123c4578586fd5b6123d08d838e016120d4565b955060c08c0135945060e08c013593506101008c01359150808211156123f4578283fd5b506124018c828d016120d4565b9150509295985092959850929598565b60008060408385031215612423578182fd5b823567ffffffffffffffff811115612439578283fd5b612445858286016120d4565b95602094909401359450505050565b600060208284031215612465578081fd5b5035919050565b6001600160a01b03169052565b15159052565b60008151808452612497816020860160208601612a8a565b601f01601f19169290920160200192915050565b600082516124bd818460208701612a8a565b9190910192915050565b81546000908190600281046001808316806124e357607f831692505b602080841082141561250357634e487b7160e01b87526022600452602487fd5b818015612517576001811461252857612554565b60ff19861689528489019650612554565b6125318a612a7e565b885b8681101561254c5781548b820152908501908301612533565b505084890196505b509498975050505050505050565b6000602080830181845280855180835260408601915060408482028701019250838701855b828110156125b557603f198886030184526125a385835161247f565b94509285019290850190600101612587565b5092979650505050505050565b901515815260200190565b6000602082526125e0602083018461247f565b9392505050565b6000606082526125fa606083018661247f565b93151560208301525060400152919050565b60006101008083526126208184018c61247f565b90508281036020840152612634818b61247f565b90508281036040840152612648818a61247f565b9050828103606084015261265c818961247f565b90508281036080840152612670818861247f565b60a084019690965250506001600160a01b039290921660c0830152151560e09091015295945050505050565b600060c082526126af60c083018961247f565b82810360208401526126c1818961247f565b905082810360408401526126d5818861247f565b905085606084015282810360808401526126ef818661247f565b91505082151560a0830152979650505050505050565b6000610180825261271a61018083018f61247f565b828103602084015261272c818f61247f565b90508281036040840152612740818e61247f565b90508b6060840152828103608084015261275a818c61247f565b905082810360a084015261276e818b61247f565b90508860c08401528760e084015282810361010084015261278f818861247f565b9150506127a061012083018661246c565b836101408301526127b5610160830184612479565b9d9c50505050505050505050505050565b600060a082526127d960a083018861247f565b82810360208401526127eb818861247f565b90508560408401528281036060840152612805818661247f565b91505082151560808301529695505050505050565b600061014080835261282e8184018e61247f565b90508281036020840152612842818d61247f565b90508a6040840152828103606084015261285c818b61247f565b90508281036080840152612870818a61247f565b90508760a08401528660c084015282810360e0840152612890818761247f565b6001600160a01b03959095166101008401525050610120015298975050505050505050565b6000604082526128c8604083018561247f565b90508260208301529392505050565b6020808252601f908201527f5175616e74697479206d7573742062652067726561746572207468616e203000604082015260600190565b602080825260149082015273426174636820616c72656164792065786973747360601b604082015260600190565b60208082526014908201527310985d18da08191bd95cc81b9bdd08195e1a5cdd60621b604082015260600190565b60208082526019908201527f4d65747269632049442063616e6e6f7420626520656d70747900000000000000604082015260600190565b60208082526018908201527f42617463682049442063616e6e6f7420626520656d7074790000000000000000604082015260600190565b60208082526017908201527f417574682049442063616e6e6f7420626520656d707479000000000000000000604082015260600190565b6020808252601c908201527f50726f64756374206e616d652063616e6e6f7420626520656d70747900000000604082015260600190565b6020808252601590820152744d657472696320616c72656164792065786973747360581b604082015260600190565b90815260200190565b60009081526020902090565b60005b83811015612aa5578181015183820152602001612a8d565b83811115612ab4576000848401525b50505050565b600281046001821680612ace57607f821691505b60208210811415612aef57634e487b7160e01b600052602260045260246000fd5b50919050565b6000600019821415612b1557634e487b7160e01b81526011600452602481fd5b5060010190565b634e487b7160e01b600052604160045260246000fdfea2646970667358221220e2d11a04189ca6e5e24065aab8a9a2b8a069c86001ce528d838aa3afb55127b964736f6c63430008000033",
  "immutableReferences": {},
  "source": "// SPDX-License-Identifier: MIT\r\npragma solidity ^0.8.0;\r\n\r\ncontract BatchTracking {\r\n    // Structs\r\n    struct Batch {\r\n        string batchId;\r\n        string productName;\r\n        string variety;\r\n        uint256 quantity;\r\n        string unit;\r\n        string location;\r\n        uint256 harvestDate;\r\n        uint256 expiryDate;\r\n        string nfcTagId;\r\n        address creator;\r\n        uint256 timestamp;\r\n        bool exists;\r\n    }\r\n    \r\n    struct QualityMetric {\r\n        string metricId;\r\n        string batchId;\r\n        string metricType;\r\n        string value;\r\n        string unit;\r\n        uint256 timestamp;\r\n        address inspector;\r\n        bool exists;\r\n    }\r\n    \r\n    struct NFCAuthentication {\r\n        string authId;\r\n        string batchId;\r\n        string nfcTagId;\r\n        uint256 timestamp;\r\n        string location;\r\n        bool isValid;\r\n    }\r\n    \r\n    // State variables\r\n    mapping(string => Batch) public batches;\r\n    mapping(string => QualityMetric) public qualityMetrics;\r\n    mapping(string => NFCAuthentication) public nfcAuthentications;\r\n    mapping(string => string[]) public batchQualityMetrics;\r\n    mapping(string => string[]) public batchAuthentications;\r\n    mapping(string => uint256) public nfcAuthenticationCount;\r\n    \r\n    string[] public batchIds;\r\n    string[] public qualityMetricIds;\r\n    string[] public authenticationIds;\r\n    \r\n    // Events\r\n    event BatchCreated(\r\n        string indexed batchId,\r\n        string productName,\r\n        address indexed creator,\r\n        uint256 timestamp\r\n    );\r\n    \r\n    event QualityMetricAdded(\r\n        string indexed metricId,\r\n        string indexed batchId,\r\n        string metricType,\r\n        address indexed inspector\r\n    );\r\n    \r\n    event NFCAuthenticated(\r\n        string indexed authId,\r\n        string indexed batchId,\r\n        string nfcTagId,\r\n        bool isValid,\r\n        uint256 timestamp\r\n    );\r\n    \r\n    // Modifiers\r\n    modifier batchExists(string memory batchId) {\r\n        require(batches[batchId].exists, \"Batch does not exist\");\r\n        _;\r\n    }\r\n    \r\n    // Functions\r\n    function createBatch(\r\n        string memory _batchId,\r\n        string memory _productName,\r\n        string memory _variety,\r\n        uint256 _quantity,\r\n        string memory _unit,\r\n        string memory _location,\r\n        uint256 _harvestDate,\r\n        uint256 _expiryDate,\r\n        string memory _nfcTagId\r\n    ) public {\r\n        require(!batches[_batchId].exists, \"Batch already exists\");\r\n        require(bytes(_batchId).length > 0, \"Batch ID cannot be empty\");\r\n        require(bytes(_productName).length > 0, \"Product name cannot be empty\");\r\n        require(_quantity > 0, \"Quantity must be greater than 0\");\r\n        \r\n        batches[_batchId] = Batch({\r\n            batchId: _batchId,\r\n            productName: _productName,\r\n            variety: _variety,\r\n            quantity: _quantity,\r\n            unit: _unit,\r\n            location: _location,\r\n            harvestDate: _harvestDate,\r\n            expiryDate: _expiryDate,\r\n            nfcTagId: _nfcTagId,\r\n            creator: msg.sender,\r\n            timestamp: block.timestamp,\r\n            exists: true\r\n        });\r\n        \r\n        batchIds.push(_batchId);\r\n        \r\n        emit BatchCreated(_batchId, _productName, msg.sender, block.timestamp);\r\n    }\r\n    \r\n    function addQualityMetric(\r\n        string memory _metricId,\r\n        string memory _batchId,\r\n        string memory _metricType,\r\n        string memory _value,\r\n        string memory _unit\r\n    ) public batchExists(_batchId) {\r\n        require(!qualityMetrics[_metricId].exists, \"Metric already exists\");\r\n        require(bytes(_metricId).length > 0, \"Metric ID cannot be empty\");\r\n        \r\n        qualityMetrics[_metricId] = QualityMetric({\r\n            metricId: _metricId,\r\n            batchId: _batchId,\r\n            metricType: _metricType,\r\n            value: _value,\r\n            unit: _unit,\r\n            timestamp: block.timestamp,\r\n            inspector: msg.sender,\r\n            exists: true\r\n        });\r\n        \r\n        qualityMetricIds.push(_metricId);\r\n        batchQualityMetrics[_batchId].push(_metricId);\r\n        \r\n        emit QualityMetricAdded(_metricId, _batchId, _metricType, msg.sender);\r\n    }\r\n    \r\n    function authenticateNFC(\r\n        string memory _authId,\r\n        string memory _batchId,\r\n        string memory _nfcTagId,\r\n        string memory _location\r\n    ) public batchExists(_batchId) returns (bool) {\r\n        require(bytes(_authId).length > 0, \"Auth ID cannot be empty\");\r\n        \r\n        // Verify NFC tag matches\r\n        bool isValid = keccak256(abi.encodePacked(batches[_batchId].nfcTagId)) == \r\n                       keccak256(abi.encodePacked(_nfcTagId));\r\n        \r\n        nfcAuthentications[_authId] = NFCAuthentication({\r\n            authId: _authId,\r\n            batchId: _batchId,\r\n            nfcTagId: _nfcTagId,\r\n            timestamp: block.timestamp,\r\n            location: _location,\r\n            isValid: isValid\r\n        });\r\n        \r\n        authenticationIds.push(_authId);\r\n        batchAuthentications[_batchId].push(_authId);\r\n        nfcAuthenticationCount[_nfcTagId]++;\r\n        \r\n        emit NFCAuthenticated(_authId, _batchId, _nfcTagId, isValid, block.timestamp);\r\n        \r\n        return isValid;\r\n    }\r\n    \r\n    function getBatch(string memory _batchId) public view returns (\r\n        string memory productName,\r\n        string memory variety,\r\n        uint256 quantity,\r\n        string memory unit,\r\n        string memory location,\r\n        uint256 harvestDate,\r\n        uint256 expiryDate,\r\n        string memory nfcTagId,\r\n        address creator,\r\n        uint256 timestamp\r\n    ) {\r\n        Batch memory batch = batches[_batchId];\r\n        require(batch.exists, \"Batch does not exist\");\r\n        \r\n        return (\r\n            batch.productName,\r\n            batch.variety,\r\n            batch.quantity,\r\n            batch.unit,\r\n            batch.location,\r\n            batch.harvestDate,\r\n            batch.expiryDate,\r\n            batch.nfcTagId,\r\n            batch.creator,\r\n            batch.timestamp\r\n        );\r\n    }\r\n    \r\n    function getBatchQualityMetrics(string memory _batchId) \r\n        public \r\n        view \r\n        returns (string[] memory) \r\n    {\r\n        return batchQualityMetrics[_batchId];\r\n    }\r\n    \r\n    function getBatchAuthentications(string memory _batchId) \r\n        public \r\n        view \r\n        returns (string[] memory) \r\n    {\r\n        return batchAuthentications[_batchId];\r\n    }\r\n    \r\n    function getTotalBatches() public view returns (uint256) {\r\n        return batchIds.length;\r\n    }\r\n    \r\n    function getAllBatchIds() public view returns (string[] memory) {\r\n        return batchIds;\r\n    }\r\n    \r\n    function getNFCAuthCount(string memory _nfcTagId) public view returns (uint256) {\r\n        return nfcAuthenticationCount[_nfcTagId];\r\n    }\r\n    \r\n    function getAuthenticationDetails(string memory _authId) public view returns (\r\n        string memory batchId,\r\n        string memory nfcTagId,\r\n        uint256 timestamp,\r\n        string memory location,\r\n        bool isValid\r\n    ) {\r\n        NFCAuthentication memory auth = nfcAuthentications[_authId];\r\n        return (\r\n            auth.batchId,\r\n            auth.nfcTagId,\r\n            auth.timestamp,\r\n            auth.location,\r\n            auth.isValid\r\n        );\r\n    }\r\n}\r\n",
  "sourcePath": "C:\\Users\\BYTE\\Desktop\\Main\\contracts\\BatchTracking.sol",
  "compiler": {
    "name": "solc",
    "version": "0.8.0+commit.c7dfd78e.Emscripten.clang"
  },
  "schemaVersion": "3.4.16",
  "updatedAt": "2025-11-01T23:00:09.585Z",
  "devdoc": {
    "kind": "dev",
    "methods": {},
    "version": 1
  },
  "userdoc": {
    "kind": "user",
    "methods": {},
    "version": 1
  }
}